:1000000055C000006EC000006CC000006AC0000057
:1000100068C0000066C0000064C0000062C000004C
:1000200060C000005EC000005CC000005AC000005C
:1000300058C0000056C0000054C0000052C000006C
:1000400050C000004EC000004CC000004AC000007C
:1000500048C0000046C0000044C0000042C000008C
:1000600040C000003EC000003CC000003AC000009C
:1000700038C0000036C0000034C0000032C00000AC
:1000800030C000002EC000002CC000002AC00000BC
:1000900028C0000026C0000024C0000022C00000CC
:1000A00020C000001EC000001CC0000011241FBEA4
:1000B000CFEFDAE0DEBFCDBF11E0A0E0B1E0ECEFC2
:1000C000F4E002C005900D92A630B107D9F711E017
:1000D000A6E0B1E001C01D92AA30B107E1F702D05D
:1000E0000BC28ECF8F929F92AF92BF92CF92DF9230
:1000F000EF92FF920F931F93DF93CF930F92CDB7A1
:10010000DEB788E090E0F3D0992E082F192F882EC3
:1001100080E88093610081E080936100849A819AF5
:100120008C9A899A89E190E09093CD008093CC00DD
:1001300082E08093C80088E18093C90086E08093C4
:10014000CA0039D0ADD081E0A1D063E271EC8BEA76
:1001500090E07BD081E168E06ED082E091D080E1D8
:1001600097E20197F1F75E010894A11CB11C98E099
:10017000E92EF12CE00EF11E80E1C82E87E2D82E88
:100180001982C50138D043D0882381F02ED0C40114
:1001900068E08CD08998F8018091C80085FFFCCF79
:1001A00081918093CE00EE15FF05B1F7899AC601C3
:1001B0000197F1F7E5CF87E084B980E58CBD08951C
:1001C0008FEF8EBD0DB407FEFDCF8EB508958EBDA9
:1001D0000DB407FEFDCF8EB508958C9A8FB1807156
:1001E0008FB98FB18823D1F308958C9887E2EFDF20
:1001F0008064EDDFF2CF0F931F938C018C9887E022
:10020000E6DFF8018083E9DF1F910F910895DF9306
:10021000CF930F92CDB7DEB7CE010196ECDF898187
:1002200090E046E0969587954A95E1F781700F90AA
:10023000CF91DF9108951F93162F8C988062C7DFAE
:10024000812FC5DFCADF1F910895EF92FF920F93B0
:100250001F937B018C018C988AE2B9DF8E2DB7DF6A
:10026000EF2CF02E012F112707FD1A958E2DAFDFF1
:1002700080E0ADDFB2DF1F910F91FF90EF90089506
:100280008C9885E2A4DF82E0A2DFA7CF1F93182F0E
:100290008C9883E29CDF812F9ADF9FDF1F91089566
:1002A0008C9880E294DF8BE092DF97CFEF92FF9201
:1002B0000F931F93CF93DF937C01162F8C9881E6C9
:1002C00086DFC0E0D0E0012F10E006C079DFF70143
:1002D000EC0FFD1F80832196C017D107BCF37DDF93
:1002E000DF91CF911F910F91FF90EF900895CF93E1
:1002F000DF93BC018230910510F462E070E0A091C0
:100300000801B0910901ED01E0E0F0E040E050E0CB
:1003100021C0888199818617970769F48A819B811A
:10032000309719F09383828304C0909309018093DE
:100330000801FE0134C06817790738F441155105EA
:1003400019F08417950708F4AC01FE018A819B819E
:100350009C01E9012097E9F641155105A9F1CA016F
:10036000861B970B049708F4BA01E0E0F0E02AC07E
:100370008D919C91119784179507F9F4641775076F
:1003800081F412968D919C911397309719F0938375
:10039000828304C09093090180930801FD01329685
:1003A0004FC0CA01861B970BFD01E80FF91F61932F
:1003B000719302978D939C9343C0FD018281938139
:1003C0009C01D9011097A1F6809106019091070137
:1003D000892B41F4809102019091030190930701D0
:1003E000809306014091040150910501411551058A
:1003F00041F44DB75EB78091000190910101481B17
:10040000590B209106013091070124173507B0F4EC
:10041000CA01821B930B8617970780F0AB014E5FD2
:100420005F4F8417950750F0420F531F50930701F9
:1004300040930601F9016193719302C0E0E0F0E09E
:10044000CF01DF91CF910895CF93DF93009709F407
:1004500050C0EC0122971B821A82A0910801B09132
:100460000901109709F140E050E0AC17BD0708F111
:10047000BB83AA83FE0121913191E20FF31FAE17D6
:10048000BF0779F48D919C911197280F391F2E5F2A
:100490003F4F3983288312968D919C9113979B83AC
:1004A0008A834115510571F4D0930901C093080165
:1004B00020C012968D919C911397AD01009711F079
:1004C000DC01D3CFFA01D383C28321913191E20FB2
:1004D000F31FCE17DF0769F488819981280F391F30
:1004E0002E5F3F4FFA01318320838A819B81938362
:0C04F0008283DF91CF910895F894FFCF34
:0604FC0020000A010000CF
:00000001FF
