:1000000055C000006EC000006CC000006AC0000057
:1000100068C0000066C0000064C0000062C000004C
:1000200060C000005EC000005CC000005AC000005C
:1000300058C0000056C0000054C0000052C000006C
:1000400050C000004EC000004CC000004AC000007C
:1000500048C0000046C0000044C0000042C000008C
:1000600040C0000078C100004BC100003AC0000051
:1000700038C0000036C0000034C0000032C00000AC
:1000800030C000002EC000002CC000002AC00000BC
:1000900028C0000026C0000024C0000022C00000CC
:1000A00020C000001EC000001CC0000011241FBEA4
:1000B000CFEFDAE0DEBFCDBF11E0A0E0B1E0E8EBCA
:1000C000F3E002C005900D92A031B107D9F711E01D
:1000D000A0E1B1E001C01D92AC37B107E1F702D059
:1000E00069C18ECFCF93DF93CDB7DEB760970FB6E0
:1000F000F894DEBF0FBECDBF80E88093610081E041
:1001000080936100849A819A8C9AF999FECF80E05D
:1001100090E048D1182F69D0198344D057D081E09E
:100120005BD063E271EC8BEA90E068D063E271EC43
:100130008BEA90E07AD08FE097E20197F1F700C068
:10014000000080E090E000E011E08F30910548F47D
:10015000E1E0F0E0EC0FFD1FE80FF91F00830196CE
:10016000F4CF60E1CE01019677D0899A98E29A9512
:10017000F1F789989AD081110BC087E592E0019739
:10018000F1F700C00000A1D08823A1F3ADD0EDCFDE
:10019000B1D08FE097E20197F1F700C0000080E056
:1001A00090E0D3CF87E084B980E58CBD08958EBD03
:1001B0000DB407FEFDCF8EB508958C9808958C9AE6
:1001C0008FB180718FB98823D9F30895F6DF80E26B
:1001D000EEDF8AE0ECDFF3CFCF93C82FEEDF83E2D0
:1001E000E6DF8C2FE4DFCF91EACFCF93C82FE5DF96
:1001F00085E2DDDF8C2FDBDFCF91E1CFCF93DF9383
:1002000000D0CDB7DEB769837A83D7DF80E3CFDF55
:100210006981862FCCDF7A81872FC9DF80E0C7DF35
:100220000F900F90DF91CF91CACFCF93DF9300D083
:10023000CDB7DEB769837A83C0DF8AE2B8DF698130
:10024000862FB5DF7A81872FB2DF80E0B0DF0F9095
:100250000F90DF91CF91B3CFEF92FF920F931F9347
:10026000CF93DF938C01E62EA8DF80EAA0DFE801C0
:10027000FF24E7FCF094CE01801B910B8E159F05A7
:100280001CF4899194DFF7CFDF91CF911F910F91EB
:10029000FF90EF9094CFCF93DF93EC018EDF87E058
:1002A00086DF8883DF91CF918ACFCF93DF931F9230
:1002B000CDB7DEB7CE010196EEDF898185FB8827B9
:1002C00080F90F90DF91CF910895CF93DF931F9224
:1002D000CDB7DEB7CE010196DEDF898182958170D0
:1002E0000F90DF91CF91089568DF87E260DF806132
:1002F0005EDF65CF62DF87E25ADF806258DF5FCF63
:100300001F920F920FB60F9211248F939F93EF932A
:10031000FF939091530180915201981304C088E992
:100320008093C9000FC0809152018F5F883208F01E
:1003300080E0E82FF0E0EC5AFE4F90819093CE00E1
:1003400080935201FF91EF919F918F910F900FBE7B
:100350000F901F9018951F920F920FB60F921124B5
:100360002F938F939F93EF93FF939091CE00809163
:1003700011018F5F803408F080E020911001821716
:1003800039F0E82FF0E0EE5EFE4F9083809311018C
:10039000FF91EF919F918F912F910F900FBE0F9032
:1003A0001F901895F999FECF92BD81BDF89A9927B3
:0803B00080B50895F894FFCF19
:1003B8004E65616C65206973206772656174210000
:00000001FF
