:10000000B3C00000C1C00000BFC00000BDC0000000
:10001000BBC00000B9C00000B7C00000B5C0000000
:10002000B3C00000B1C000000FC200004CC200000D
:10003000ABC00000A9C00000A7C00000A5C0000020
:10004000A3C00000A1C000009FC000009DC0000030
:100050009BC0000099C0000097C0000095C0000040
:1000600093C00000C5C1000098C100008DC0000011
:100070008BC0000089C0000087C0000085C0000060
:1000800083C0000081C000007FC000007DC0000070
:100090007BC0000079C0000077C0000075C0000080
:1000A00073C0000071C000006FC0000000010000BC
:1000B00050011200020000190122002200003B0141
:1000C00015002100002B01090003000015010401A7
:1000D000030904FF001402030904DD002020035972
:1000E000006F007500720020005500530042002090
:1000F000004400650076006900630065000000149C
:100100000359006F007500720020004E0061006D01
:100110000065000000040309040902220001010037
:10012000C032090400000103000000092111010090
:1001300001221500070583032000010631FF097421
:10014000A1537508150026FF00952009758102C08E
:100150001201000200000020C01679040001010213
:100160000001000001C1260011241FBECFEFDAE01C
:10017000DEBFCDBF11E0A0E0B1E001C01D92AF36FF
:10018000B107E1F702D0DAC23BCFCF93DF93CDB70F
:10019000DEB728970FB6F894DEBF0FBECDBF80E85C
:1001A0008093610081E080936100849A819A8C9AA7
:1001B00049D05CD081E060D063E271EC8BEA90E0E2
:1001C0006AD063E271EC8BEA90E07CD082E05DD093
:1001D000FE01319688E0DF011D928A95E9F78FE0F4
:1001E00097E20197F1F700C0000080E090E08830CE
:1001F00091055CF4E1E0F0E0EC0FFD1FE80FF91F62
:1002000021E6280F20830196F2CF68E0CE01019607
:1002100070D0899A98E29A95F1F7899893D08111D4
:100220000FC0A7E5B2E01197F1F700C000009AD027
:100230008823A1F3A6D0899AB8E2BA95F1F7EDCF59
:10024000A6D0CDCF87E084B980E58CBD08958EBD62
:100250000DB407FEFDCF8EB508958C9808958C9A45
:100260008FB180718FB98823D9F30895F6DF80E2CA
:10027000EEDF8AE0ECDFF3CFCF93C82FEEDF83E22F
:10028000E6DF8C2FE4DFCF91EACFE7DF85E2DFDF27
:1002900082E0DDDFE4CFCF93DF9300D0CDB7DEB7D0
:1002A00069837A83DADF80E3D2DF6981862FCFDF4B
:1002B0007A81872FCCDF80E0CADF0F900F90DF912B
:1002C000CF91CDCFCF93DF9300D0CDB7DEB7698389
:1002D0007A83C3DF8AE2BBDF6981862FB8DF7A8148
:1002E000872FB5DF80E0B3DF0F900F90DF91CF91C4
:1002F000B6CFEF92FF920F931F93CF93DF938C01B2
:10030000E62EABDF80EAA3DFE801FF24E7FCF094F0
:10031000CE01801B910B8E159F051CF4899197DFF0
:10032000F7CFDF91CF911F910F91FF90EF9097CF73
:10033000CF93DF93EC0191DF87E089DF8883DF9142
:10034000CF918DCFCF93DF931F92CDB7DEB7CE0184
:100350000196EEDF898185FB882780F90F90DF9178
:10036000CF910895CF93DF931F92CDB7DEB7CE0123
:100370000196DEDF8981829581700F90DF91CF91A8
:1003800008956BDF87E263DF806161DF68CF65DF3F
:1003900087E25DDF80625BDF62CF1F920F920FB654
:1003A0000F9211248F939F93EF93FF9390914301AA
:1003B00080914201981304C088E98093C9000FC05E
:1003C000809142018F5F883208F080E0E82FF0E0F2
:1003D000EC5BFE4F90819093CE0080934201FF91A1
:1003E000EF919F918F910F900FBE0F901F901895D6
:1003F0001F920F920FB60F9211242F938F939F93FA
:10040000EF93FF939091CE00809101018F5F803434
:1004100008F080E020910001821739F0E82FF0E029
:10042000EE5FFE4F908380930101FF91EF919F91CA
:100430008F912F910F900FBE0F901F901895809164
:10044000E80080FFFCCF08951F920F920FB60F9225
:1004500011248F939F938091E1001092E10083FF1C
:100460000FC01092E90091E09093EB001092EC0025
:1004700092E29093ED0098E09093F00010926E015C
:1004800082FF1AC080916E018823B1F080916D01C6
:10049000882391F0815080936D0181110DC083E01C
:1004A0008093E9008091E80085FF03C01092F1007D
:1004B000F9CF8AE38093E8009F918F910F900FBE50
:1004C0000F901F9018951F920F920FB60F92112444
:1004D000EF92FF920F931F932F933F934F935F934E
:1004E0006F937F938F939F93AF93BF93EF93FF93FC
:1004F000CF93DF931F92CDB7DEB71092E9008091C2
:10050000E80083FF00C19091F1008091F10000911B
:10051000F1002091F10010E0122B3091F1002091B8
:10052000F100E32EF12CF22A2091F1004091F1002C
:1005300030E0342B42EF4093E800863009F044C0AD
:1005400067E08CEA90E0FC01459154914017510717
:1005500039F4FC013296459154914E155F0521F016
:100560000796615081F7CFC0FC01349645915491B4
:10057000FC01369684912F3F310519F010F02FEFD2
:1005800030E0281708F4822F3EEF9091E800292FE1
:100590002570D9F392FDBAC0982F813208F090E20D
:1005A000FA01292F222331F064916093F100215048
:1005B0003196F8CF490F511D891B3093E800811106
:1005C000E4CF903211F3A2C0853041F48EEF8093D6
:1005D000E80035DF00680093E30098C0893041F5FA
:1005E00091114BC000936E018EEF8093E80041E0C3
:1005F00082E691E04093E9009C012F5F3F4FFC01B0
:1006000054915093EB00552361F0F901249120930C
:10061000EC009C012D5F3F4FFC013296849180934A
:10062000ED004F5F453011F0C901E4CF8EE145C0C8
:10063000883049F4903809F066C001DF80916E017E
:100640008093F10016C0811118C09983F8DE99815A
:10065000923851F4E092E9008091EB0085FB882705
:1006600080F91092E90001C080E08093F1001092BF
:10067000F1008EEF8093E80049C0482F4D7F413054
:1006800009F041C09230F1F4012BE9F52E2D2F77BE
:100690009FEF920F9430B8F59EEF9093E80020936F
:1006A000E900833081F189E18093EB0081E090E003
:1006B000022E01C0880F0A94EAF78093EA00109294
:1006C000EA0024C08130F9F4913AE9F4EF28D9F432
:1006D0003EEF8091E800982F9570D9F382FD16C007
:1006E000822F213208F080E2982F992321F0109276
:1006F000F1009150FACF281B3093E8002111E9CF87
:10070000803239F303C081E28093EB000F90DF91D8
:10071000CF91FF91EF91BF91AF919F918F917F9179
:100720006F915F914F913F912F911F910F91FF908A
:10073000EF900F900FBE0F901F901895F894FFCF79
:00000001FF
